{
  "_format": "hh-sol-artifact-1",
  "contractName": "MinimalERC721",
  "sourceName": "contracts/MinimalERC721.sol",
  "abi": [
    {
      "inputs": [],
      "stateMutability": "nonpayable",
      "type": "constructor"
    },
    {
      "anonymous": false,
      "inputs": [
        {
          "indexed": true,
          "internalType": "address",
          "name": "owner",
          "type": "address"
        },
        {
          "indexed": true,
          "internalType": "address",
          "name": "approved",
          "type": "address"
        },
        {
          "indexed": true,
          "internalType": "uint256",
          "name": "tokenId",
          "type": "uint256"
        }
      ],
      "name": "Approval",
      "type": "event"
    },
    {
      "anonymous": false,
      "inputs": [
        {
          "indexed": true,
          "internalType": "address",
          "name": "owner",
          "type": "address"
        },
        {
          "indexed": true,
          "internalType": "address",
          "name": "operator",
          "type": "address"
        },
        {
          "indexed": false,
          "internalType": "bool",
          "name": "approved",
          "type": "bool"
        }
      ],
      "name": "ApprovalForAll",
      "type": "event"
    },
    {
      "anonymous": false,
      "inputs": [
        {
          "indexed": true,
          "internalType": "address",
          "name": "previousOwner",
          "type": "address"
        },
        {
          "indexed": true,
          "internalType": "address",
          "name": "newOwner",
          "type": "address"
        }
      ],
      "name": "OwnershipTransferred",
      "type": "event"
    },
    {
      "anonymous": false,
      "inputs": [
        {
          "indexed": true,
          "internalType": "address",
          "name": "from",
          "type": "address"
        },
        {
          "indexed": true,
          "internalType": "address",
          "name": "to",
          "type": "address"
        },
        {
          "indexed": true,
          "internalType": "uint256",
          "name": "tokenId",
          "type": "uint256"
        }
      ],
      "name": "Transfer",
      "type": "event"
    },
    {
      "inputs": [
        {
          "internalType": "address",
          "name": "to",
          "type": "address"
        },
        {
          "internalType": "uint256",
          "name": "tokenId",
          "type": "uint256"
        }
      ],
      "name": "approve",
      "outputs": [],
      "stateMutability": "nonpayable",
      "type": "function"
    },
    {
      "inputs": [
        {
          "internalType": "address",
          "name": "owner",
          "type": "address"
        }
      ],
      "name": "balanceOf",
      "outputs": [
        {
          "internalType": "uint256",
          "name": "",
          "type": "uint256"
        }
      ],
      "stateMutability": "view",
      "type": "function"
    },
    {
      "inputs": [
        {
          "internalType": "uint256",
          "name": "tokenId",
          "type": "uint256"
        }
      ],
      "name": "getApproved",
      "outputs": [
        {
          "internalType": "address",
          "name": "",
          "type": "address"
        }
      ],
      "stateMutability": "view",
      "type": "function"
    },
    {
      "inputs": [
        {
          "internalType": "address",
          "name": "owner",
          "type": "address"
        },
        {
          "internalType": "address",
          "name": "operator",
          "type": "address"
        }
      ],
      "name": "isApprovedForAll",
      "outputs": [
        {
          "internalType": "bool",
          "name": "",
          "type": "bool"
        }
      ],
      "stateMutability": "view",
      "type": "function"
    },
    {
      "inputs": [
        {
          "internalType": "address",
          "name": "_to",
          "type": "address"
        }
      ],
      "name": "mint",
      "outputs": [],
      "stateMutability": "nonpayable",
      "type": "function"
    },
    {
      "inputs": [],
      "name": "name",
      "outputs": [
        {
          "internalType": "string",
          "name": "",
          "type": "string"
        }
      ],
      "stateMutability": "view",
      "type": "function"
    },
    {
      "inputs": [],
      "name": "owner",
      "outputs": [
        {
          "internalType": "address",
          "name": "",
          "type": "address"
        }
      ],
      "stateMutability": "view",
      "type": "function"
    },
    {
      "inputs": [
        {
          "internalType": "uint256",
          "name": "tokenId",
          "type": "uint256"
        }
      ],
      "name": "ownerOf",
      "outputs": [
        {
          "internalType": "address",
          "name": "",
          "type": "address"
        }
      ],
      "stateMutability": "view",
      "type": "function"
    },
    {
      "inputs": [],
      "name": "renounceOwnership",
      "outputs": [],
      "stateMutability": "nonpayable",
      "type": "function"
    },
    {
      "inputs": [
        {
          "internalType": "address",
          "name": "from",
          "type": "address"
        },
        {
          "internalType": "address",
          "name": "to",
          "type": "address"
        },
        {
          "internalType": "uint256",
          "name": "tokenId",
          "type": "uint256"
        }
      ],
      "name": "safeTransferFrom",
      "outputs": [],
      "stateMutability": "nonpayable",
      "type": "function"
    },
    {
      "inputs": [
        {
          "internalType": "address",
          "name": "from",
          "type": "address"
        },
        {
          "internalType": "address",
          "name": "to",
          "type": "address"
        },
        {
          "internalType": "uint256",
          "name": "tokenId",
          "type": "uint256"
        },
        {
          "internalType": "bytes",
          "name": "_data",
          "type": "bytes"
        }
      ],
      "name": "safeTransferFrom",
      "outputs": [],
      "stateMutability": "nonpayable",
      "type": "function"
    },
    {
      "inputs": [
        {
          "internalType": "address",
          "name": "operator",
          "type": "address"
        },
        {
          "internalType": "bool",
          "name": "approved",
          "type": "bool"
        }
      ],
      "name": "setApprovalForAll",
      "outputs": [],
      "stateMutability": "nonpayable",
      "type": "function"
    },
    {
      "inputs": [
        {
          "internalType": "bytes4",
          "name": "interfaceId",
          "type": "bytes4"
        }
      ],
      "name": "supportsInterface",
      "outputs": [
        {
          "internalType": "bool",
          "name": "",
          "type": "bool"
        }
      ],
      "stateMutability": "view",
      "type": "function"
    },
    {
      "inputs": [],
      "name": "symbol",
      "outputs": [
        {
          "internalType": "string",
          "name": "",
          "type": "string"
        }
      ],
      "stateMutability": "view",
      "type": "function"
    },
    {
      "inputs": [
        {
          "internalType": "uint256",
          "name": "tokenId",
          "type": "uint256"
        }
      ],
      "name": "tokenURI",
      "outputs": [
        {
          "internalType": "string",
          "name": "",
          "type": "string"
        }
      ],
      "stateMutability": "view",
      "type": "function"
    },
    {
      "inputs": [
        {
          "internalType": "address",
          "name": "from",
          "type": "address"
        },
        {
          "internalType": "address",
          "name": "to",
          "type": "address"
        },
        {
          "internalType": "uint256",
          "name": "tokenId",
          "type": "uint256"
        }
      ],
      "name": "transferFrom",
      "outputs": [],
      "stateMutability": "nonpayable",
      "type": "function"
    },
    {
      "inputs": [
        {
          "internalType": "address",
          "name": "newOwner",
          "type": "address"
        }
      ],
      "name": "transferOwnership",
      "outputs": [],
      "stateMutability": "nonpayable",
      "type": "function"
    }
  ],
  "bytecode": "0x60806040523480156200001157600080fd5b506040518060400160405280600781526020017f4d696e696d616c000000000000000000000000000000000000000000000000008152506040518060400160405280600381526020017f4d494e0000000000000000000000000000000000000000000000000000000000815250816000908051906020019062000096929190620001a6565b508060019080519060200190620000af929190620001a6565b505050620000d2620000c6620000d860201b60201c565b620000e060201b60201c565b620002bb565b600033905090565b6000600660009054906101000a900473ffffffffffffffffffffffffffffffffffffffff16905081600660006101000a81548173ffffffffffffffffffffffffffffffffffffffff021916908373ffffffffffffffffffffffffffffffffffffffff1602179055508173ffffffffffffffffffffffffffffffffffffffff168173ffffffffffffffffffffffffffffffffffffffff167f8be0079c531659141344cd1fd0a4f28419497f9722a3daafe3b4186f6b6457e060405160405180910390a35050565b828054620001b49062000256565b90600052602060002090601f016020900481019282620001d8576000855562000224565b82601f10620001f357805160ff191683800117855562000224565b8280016001018555821562000224579182015b828111156200022357825182559160200191906001019062000206565b5b50905062000233919062000237565b5090565b5b808211156200025257600081600090555060010162000238565b5090565b600060028204905060018216806200026f57607f821691505b602082108114156200028657620002856200028c565b5b50919050565b7f4e487b7100000000000000000000000000000000000000000000000000000000600052602260045260246000fd5b612b4380620002cb6000396000f3fe608060405234801561001057600080fd5b506004361061010b5760003560e01c806370a08231116100a2578063a22cb46511610071578063a22cb465146102a4578063b88d4fde146102c0578063c87b56dd146102dc578063e985e9c51461030c578063f2fde38b1461033c5761010b565b806370a082311461022e578063715018a61461025e5780638da5cb5b1461026857806395d89b41146102865761010b565b806323b872dd116100de57806323b872dd146101aa57806342842e0e146101c65780636352211e146101e25780636a627842146102125761010b565b806301ffc9a71461011057806306fdde0314610140578063081812fc1461015e578063095ea7b31461018e575b600080fd5b61012a60048036038101906101259190611c47565b610358565b604051610137919061204d565b60405180910390f35b61014861043a565b6040516101559190612068565b60405180910390f35b61017860048036038101906101739190611c99565b6104cc565b6040516101859190611fe6565b60405180910390f35b6101a860048036038101906101a39190611c0b565b610551565b005b6101c460048036038101906101bf9190611b05565b610669565b005b6101e060048036038101906101db9190611b05565b6106c9565b005b6101fc60048036038101906101f79190611c99565b6106e9565b6040516102099190611fe6565b60405180910390f35b61022c60048036038101906102279190611aa0565b61079b565b005b61024860048036038101906102439190611aa0565b610837565b604051610255919061228a565b60405180910390f35b6102666108ef565b005b610270610977565b60405161027d9190611fe6565b60405180910390f35b61028e6109a1565b60405161029b9190612068565b60405180910390f35b6102be60048036038101906102b99190611bcf565b610a33565b005b6102da60048036038101906102d59190611b54565b610a49565b005b6102f660048036038101906102f19190611c99565b610aab565b6040516103039190612068565b60405180910390f35b61032660048036038101906103219190611ac9565b610b52565b604051610333919061204d565b60405180910390f35b61035660048036038101906103519190611aa0565b610be6565b005b60007f80ac58cd000000000000000000000000000000000000000000000000000000007bffffffffffffffffffffffffffffffffffffffffffffffffffffffff1916827bffffffffffffffffffffffffffffffffffffffffffffffffffffffff1916148061042357507f5b5e139f000000000000000000000000000000000000000000000000000000007bffffffffffffffffffffffffffffffffffffffffffffffffffffffff1916827bffffffffffffffffffffffffffffffffffffffffffffffffffffffff1916145b80610433575061043282610cde565b5b9050919050565b606060008054610449906124af565b80601f0160208091040260200160405190810160405280929190818152602001828054610475906124af565b80156104c25780601f10610497576101008083540402835291602001916104c2565b820191906000526020600020905b8154815290600101906020018083116104a557829003601f168201915b5050505050905090565b60006104d782610d48565b610516576040517f08c379a000000000000000000000000000000000000000000000000000000000815260040161050d906121ea565b60405180910390fd5b6004600083815260200190815260200160002060009054906101000a900473ffffffffffffffffffffffffffffffffffffffff169050919050565b600061055c826106e9565b90508073ffffffffffffffffffffffffffffffffffffffff168373ffffffffffffffffffffffffffffffffffffffff1614156105cd576040517f08c379a00000000000000000000000000000000000000000000000000000000081526004016105c49061224a565b60405180910390fd5b8073ffffffffffffffffffffffffffffffffffffffff166105ec610db4565b73ffffffffffffffffffffffffffffffffffffffff16148061061b575061061a81610615610db4565b610b52565b5b61065a576040517f08c379a00000000000000000000000000000000000000000000000000000000081526004016106519061216a565b60405180910390fd5b6106648383610dbc565b505050565b61067a610674610db4565b82610e75565b6106b9576040517f08c379a00000000000000000000000000000000000000000000000000000000081526004016106b09061226a565b60405180910390fd5b6106c4838383610f53565b505050565b6106e483838360405180602001604052806000815250610a49565b505050565b6000806002600084815260200190815260200160002060009054906101000a900473ffffffffffffffffffffffffffffffffffffffff169050600073ffffffffffffffffffffffffffffffffffffffff168173ffffffffffffffffffffffffffffffffffffffff161415610792576040517f08c379a0000000000000000000000000000000000000000000000000000000008152600401610789906121aa565b60405180910390fd5b80915050919050565b6107a3610db4565b73ffffffffffffffffffffffffffffffffffffffff166107c1610977565b73ffffffffffffffffffffffffffffffffffffffff1614610817576040517f08c379a000000000000000000000000000000000000000000000000000000000815260040161080e9061220a565b60405180910390fd5b61082a8161082560076111ba565b6111c8565b61083460076113a2565b50565b60008073ffffffffffffffffffffffffffffffffffffffff168273ffffffffffffffffffffffffffffffffffffffff1614156108a8576040517f08c379a000000000000000000000000000000000000000000000000000000000815260040161089f9061218a565b60405180910390fd5b600360008373ffffffffffffffffffffffffffffffffffffffff1673ffffffffffffffffffffffffffffffffffffffff168152602001908152602001600020549050919050565b6108f7610db4565b73ffffffffffffffffffffffffffffffffffffffff16610915610977565b73ffffffffffffffffffffffffffffffffffffffff161461096b576040517f08c379a00000000000000000000000000000000000000000000000000000000081526004016109629061220a565b60405180910390fd5b61097560006113b8565b565b6000600660009054906101000a900473ffffffffffffffffffffffffffffffffffffffff16905090565b6060600180546109b0906124af565b80601f01602080910402602001604051908101604052809291908181526020018280546109dc906124af565b8015610a295780601f106109fe57610100808354040283529160200191610a29565b820191906000526020600020905b815481529060010190602001808311610a0c57829003601f168201915b5050505050905090565b610a45610a3e610db4565b838361147e565b5050565b610a5a610a54610db4565b83610e75565b610a99576040517f08c379a0000000000000000000000000000000000000000000000000000000008152600401610a909061226a565b60405180910390fd5b610aa5848484846115eb565b50505050565b6060610ab682610d48565b610af5576040517f08c379a0000000000000000000000000000000000000000000000000000000008152600401610aec9061222a565b60405180910390fd5b6000610aff611647565b90506000815111610b1f5760405180602001604052806000815250610b4a565b80610b298461165e565b604051602001610b3a929190611fc2565b6040516020818303038152906040525b915050919050565b6000600560008473ffffffffffffffffffffffffffffffffffffffff1673ffffffffffffffffffffffffffffffffffffffff16815260200190815260200160002060008373ffffffffffffffffffffffffffffffffffffffff1673ffffffffffffffffffffffffffffffffffffffff16815260200190815260200160002060009054906101000a900460ff16905092915050565b610bee610db4565b73ffffffffffffffffffffffffffffffffffffffff16610c0c610977565b73ffffffffffffffffffffffffffffffffffffffff1614610c62576040517f08c379a0000000000000000000000000000000000000000000000000000000008152600401610c599061220a565b60405180910390fd5b600073ffffffffffffffffffffffffffffffffffffffff168173ffffffffffffffffffffffffffffffffffffffff161415610cd2576040517f08c379a0000000000000000000000000000000000000000000000000000000008152600401610cc9906120aa565b60405180910390fd5b610cdb816113b8565b50565b60007f01ffc9a7000000000000000000000000000000000000000000000000000000007bffffffffffffffffffffffffffffffffffffffffffffffffffffffff1916827bffffffffffffffffffffffffffffffffffffffffffffffffffffffff1916149050919050565b60008073ffffffffffffffffffffffffffffffffffffffff166002600084815260200190815260200160002060009054906101000a900473ffffffffffffffffffffffffffffffffffffffff1673ffffffffffffffffffffffffffffffffffffffff1614159050919050565b600033905090565b816004600083815260200190815260200160002060006101000a81548173ffffffffffffffffffffffffffffffffffffffff021916908373ffffffffffffffffffffffffffffffffffffffff160217905550808273ffffffffffffffffffffffffffffffffffffffff16610e2f836106e9565b73ffffffffffffffffffffffffffffffffffffffff167f8c5be1e5ebec7d5bd14f71427d1e84f3dd0314c0f7b2291e5b200ac8c7c3b92560405160405180910390a45050565b6000610e8082610d48565b610ebf576040517f08c379a0000000000000000000000000000000000000000000000000000000008152600401610eb69061214a565b60405180910390fd5b6000610eca836106e9565b90508073ffffffffffffffffffffffffffffffffffffffff168473ffffffffffffffffffffffffffffffffffffffff161480610f3957508373ffffffffffffffffffffffffffffffffffffffff16610f21846104cc565b73ffffffffffffffffffffffffffffffffffffffff16145b80610f4a5750610f498185610b52565b5b91505092915050565b8273ffffffffffffffffffffffffffffffffffffffff16610f73826106e9565b73ffffffffffffffffffffffffffffffffffffffff1614610fc9576040517f08c379a0000000000000000000000000000000000000000000000000000000008152600401610fc0906120ca565b60405180910390fd5b600073ffffffffffffffffffffffffffffffffffffffff168273ffffffffffffffffffffffffffffffffffffffff161415611039576040517f08c379a00000000000000000000000000000000000000000000000000000000081526004016110309061210a565b60405180910390fd5b61104483838361180b565b61104f600082610dbc565b6001600360008573ffffffffffffffffffffffffffffffffffffffff1673ffffffffffffffffffffffffffffffffffffffff168152602001908152602001600020600082825461109f91906123c5565b925050819055506001600360008473ffffffffffffffffffffffffffffffffffffffff1673ffffffffffffffffffffffffffffffffffffffff16815260200190815260200160002060008282546110f6919061233e565b92505081905550816002600083815260200190815260200160002060006101000a81548173ffffffffffffffffffffffffffffffffffffffff021916908373ffffffffffffffffffffffffffffffffffffffff160217905550808273ffffffffffffffffffffffffffffffffffffffff168473ffffffffffffffffffffffffffffffffffffffff167fddf252ad1be2c89b69c2b068fc378daa952ba7f163c4a11628f55a4df523b3ef60405160405180910390a46111b5838383611810565b505050565b600081600001549050919050565b600073ffffffffffffffffffffffffffffffffffffffff168273ffffffffffffffffffffffffffffffffffffffff161415611238576040517f08c379a000000000000000000000000000000000000000000000000000000000815260040161122f906121ca565b60405180910390fd5b61124181610d48565b15611281576040517f08c379a0000000000000000000000000000000000000000000000000000000008152600401611278906120ea565b60405180910390fd5b61128d6000838361180b565b6001600360008473ffffffffffffffffffffffffffffffffffffffff1673ffffffffffffffffffffffffffffffffffffffff16815260200190815260200160002060008282546112dd919061233e565b92505081905550816002600083815260200190815260200160002060006101000a81548173ffffffffffffffffffffffffffffffffffffffff021916908373ffffffffffffffffffffffffffffffffffffffff160217905550808273ffffffffffffffffffffffffffffffffffffffff16600073ffffffffffffffffffffffffffffffffffffffff167fddf252ad1be2c89b69c2b068fc378daa952ba7f163c4a11628f55a4df523b3ef60405160405180910390a461139e60008383611810565b5050565b6001816000016000828254019250508190555050565b6000600660009054906101000a900473ffffffffffffffffffffffffffffffffffffffff16905081600660006101000a81548173ffffffffffffffffffffffffffffffffffffffff021916908373ffffffffffffffffffffffffffffffffffffffff1602179055508173ffffffffffffffffffffffffffffffffffffffff168173ffffffffffffffffffffffffffffffffffffffff167f8be0079c531659141344cd1fd0a4f28419497f9722a3daafe3b4186f6b6457e060405160405180910390a35050565b8173ffffffffffffffffffffffffffffffffffffffff168373ffffffffffffffffffffffffffffffffffffffff1614156114ed576040517f08c379a00000000000000000000000000000000000000000000000000000000081526004016114e49061212a565b60405180910390fd5b80600560008573ffffffffffffffffffffffffffffffffffffffff1673ffffffffffffffffffffffffffffffffffffffff16815260200190815260200160002060008473ffffffffffffffffffffffffffffffffffffffff1673ffffffffffffffffffffffffffffffffffffffff16815260200190815260200160002060006101000a81548160ff0219169083151502179055508173ffffffffffffffffffffffffffffffffffffffff168373ffffffffffffffffffffffffffffffffffffffff167f17307eab39ab6107e8899845ad3d59bd9653f200f220920489ca2b5937696c31836040516115de919061204d565b60405180910390a3505050565b6115f6848484610f53565b61160284848484611815565b611641576040517f08c379a00000000000000000000000000000000000000000000000000000000081526004016116389061208a565b60405180910390fd5b50505050565b606060405180602001604052806000815250905090565b606060008214156116a6576040518060400160405280600181526020017f30000000000000000000000000000000000000000000000000000000000000008152509050611806565b600082905060005b600082146116d85780806116c190612512565b915050600a826116d19190612394565b91506116ae565b60008167ffffffffffffffff81111561171a577f4e487b7100000000000000000000000000000000000000000000000000000000600052604160045260246000fd5b6040519080825280601f01601f19166020018201604052801561174c5781602001600182028036833780820191505090505b5090505b600085146117ff5760018261176591906123c5565b9150600a85611774919061255b565b6030611780919061233e565b60f81b8183815181106117bc577f4e487b7100000000000000000000000000000000000000000000000000000000600052603260045260246000fd5b60200101907effffffffffffffffffffffffffffffffffffffffffffffffffffffffffffff1916908160001a905350600a856117f89190612394565b9450611750565b8093505050505b919050565b505050565b505050565b60006118368473ffffffffffffffffffffffffffffffffffffffff166119ac565b1561199f578373ffffffffffffffffffffffffffffffffffffffff1663150b7a0261185f610db4565b8786866040518563ffffffff1660e01b81526004016118819493929190612001565b602060405180830381600087803b15801561189b57600080fd5b505af19250505080156118cc57506040513d601f19601f820116820180604052508101906118c99190611c70565b60015b61194f573d80600081146118fc576040519150601f19603f3d011682016040523d82523d6000602084013e611901565b606091505b50600081511415611947576040517f08c379a000000000000000000000000000000000000000000000000000000000815260040161193e9061208a565b60405180910390fd5b805181602001fd5b63150b7a0260e01b7bffffffffffffffffffffffffffffffffffffffffffffffffffffffff1916817bffffffffffffffffffffffffffffffffffffffffffffffffffffffff1916149150506119a4565b600190505b949350505050565b6000808273ffffffffffffffffffffffffffffffffffffffff163b119050919050565b60006119e26119dd846122ca565b6122a5565b9050828152602081018484840111156119fa57600080fd5b611a0584828561246d565b509392505050565b600081359050611a1c81612ab1565b92915050565b600081359050611a3181612ac8565b92915050565b600081359050611a4681612adf565b92915050565b600081519050611a5b81612adf565b92915050565b600082601f830112611a7257600080fd5b8135611a828482602086016119cf565b91505092915050565b600081359050611a9a81612af6565b92915050565b600060208284031215611ab257600080fd5b6000611ac084828501611a0d565b91505092915050565b60008060408385031215611adc57600080fd5b6000611aea85828601611a0d565b9250506020611afb85828601611a0d565b9150509250929050565b600080600060608486031215611b1a57600080fd5b6000611b2886828701611a0d565b9350506020611b3986828701611a0d565b9250506040611b4a86828701611a8b565b9150509250925092565b60008060008060808587031215611b6a57600080fd5b6000611b7887828801611a0d565b9450506020611b8987828801611a0d565b9350506040611b9a87828801611a8b565b925050606085013567ffffffffffffffff811115611bb757600080fd5b611bc387828801611a61565b91505092959194509250565b60008060408385031215611be257600080fd5b6000611bf085828601611a0d565b9250506020611c0185828601611a22565b9150509250929050565b60008060408385031215611c1e57600080fd5b6000611c2c85828601611a0d565b9250506020611c3d85828601611a8b565b9150509250929050565b600060208284031215611c5957600080fd5b6000611c6784828501611a37565b91505092915050565b600060208284031215611c8257600080fd5b6000611c9084828501611a4c565b91505092915050565b600060208284031215611cab57600080fd5b6000611cb984828501611a8b565b91505092915050565b611ccb816123f9565b82525050565b611cda8161240b565b82525050565b6000611ceb826122fb565b611cf58185612311565b9350611d0581856020860161247c565b611d0e81612648565b840191505092915050565b6000611d2482612306565b611d2e8185612322565b9350611d3e81856020860161247c565b611d4781612648565b840191505092915050565b6000611d5d82612306565b611d678185612333565b9350611d7781856020860161247c565b80840191505092915050565b6000611d90603283612322565b9150611d9b82612659565b604082019050919050565b6000611db3602683612322565b9150611dbe826126a8565b604082019050919050565b6000611dd6602583612322565b9150611de1826126f7565b604082019050919050565b6000611df9601c83612322565b9150611e0482612746565b602082019050919050565b6000611e1c602483612322565b9150611e278261276f565b604082019050919050565b6000611e3f601983612322565b9150611e4a826127be565b602082019050919050565b6000611e62602c83612322565b9150611e6d826127e7565b604082019050919050565b6000611e85603883612322565b9150611e9082612836565b604082019050919050565b6000611ea8602a83612322565b9150611eb382612885565b604082019050919050565b6000611ecb602983612322565b9150611ed6826128d4565b604082019050919050565b6000611eee602083612322565b9150611ef982612923565b602082019050919050565b6000611f11602c83612322565b9150611f1c8261294c565b604082019050919050565b6000611f34602083612322565b9150611f3f8261299b565b602082019050919050565b6000611f57602f83612322565b9150611f62826129c4565b604082019050919050565b6000611f7a602183612322565b9150611f8582612a13565b604082019050919050565b6000611f9d603183612322565b9150611fa882612a62565b604082019050919050565b611fbc81612463565b82525050565b6000611fce8285611d52565b9150611fda8284611d52565b91508190509392505050565b6000602082019050611ffb6000830184611cc2565b92915050565b60006080820190506120166000830187611cc2565b6120236020830186611cc2565b6120306040830185611fb3565b81810360608301526120428184611ce0565b905095945050505050565b60006020820190506120626000830184611cd1565b92915050565b600060208201905081810360008301526120828184611d19565b905092915050565b600060208201905081810360008301526120a381611d83565b9050919050565b600060208201905081810360008301526120c381611da6565b9050919050565b600060208201905081810360008301526120e381611dc9565b9050919050565b6000602082019050818103600083015261210381611dec565b9050919050565b6000602082019050818103600083015261212381611e0f565b9050919050565b6000602082019050818103600083015261214381611e32565b9050919050565b6000602082019050818103600083015261216381611e55565b9050919050565b6000602082019050818103600083015261218381611e78565b9050919050565b600060208201905081810360008301526121a381611e9b565b9050919050565b600060208201905081810360008301526121c381611ebe565b9050919050565b600060208201905081810360008301526121e381611ee1565b9050919050565b6000602082019050818103600083015261220381611f04565b9050919050565b6000602082019050818103600083015261222381611f27565b9050919050565b6000602082019050818103600083015261224381611f4a565b9050919050565b6000602082019050818103600083015261226381611f6d565b9050919050565b6000602082019050818103600083015261228381611f90565b9050919050565b600060208201905061229f6000830184611fb3565b92915050565b60006122af6122c0565b90506122bb82826124e1565b919050565b6000604051905090565b600067ffffffffffffffff8211156122e5576122e4612619565b5b6122ee82612648565b9050602081019050919050565b600081519050919050565b600081519050919050565b600082825260208201905092915050565b600082825260208201905092915050565b600081905092915050565b600061234982612463565b915061235483612463565b9250827fffffffffffffffffffffffffffffffffffffffffffffffffffffffffffffffff038211156123895761238861258c565b5b828201905092915050565b600061239f82612463565b91506123aa83612463565b9250826123ba576123b96125bb565b5b828204905092915050565b60006123d082612463565b91506123db83612463565b9250828210156123ee576123ed61258c565b5b828203905092915050565b600061240482612443565b9050919050565b60008115159050919050565b60007fffffffff0000000000000000000000000000000000000000000000000000000082169050919050565b600073ffffffffffffffffffffffffffffffffffffffff82169050919050565b6000819050919050565b82818337600083830152505050565b60005b8381101561249a57808201518184015260208101905061247f565b838111156124a9576000848401525b50505050565b600060028204905060018216806124c757607f821691505b602082108114156124db576124da6125ea565b5b50919050565b6124ea82612648565b810181811067ffffffffffffffff8211171561250957612508612619565b5b80604052505050565b600061251d82612463565b91507fffffffffffffffffffffffffffffffffffffffffffffffffffffffffffffffff8214156125505761254f61258c565b5b600182019050919050565b600061256682612463565b915061257183612463565b925082612581576125806125bb565b5b828206905092915050565b7f4e487b7100000000000000000000000000000000000000000000000000000000600052601160045260246000fd5b7f4e487b7100000000000000000000000000000000000000000000000000000000600052601260045260246000fd5b7f4e487b7100000000000000000000000000000000000000000000000000000000600052602260045260246000fd5b7f4e487b7100000000000000000000000000000000000000000000000000000000600052604160045260246000fd5b6000601f19601f8301169050919050565b7f4552433732313a207472616e7366657220746f206e6f6e20455243373231526560008201527f63656976657220696d706c656d656e7465720000000000000000000000000000602082015250565b7f4f776e61626c653a206e6577206f776e657220697320746865207a65726f206160008201527f6464726573730000000000000000000000000000000000000000000000000000602082015250565b7f4552433732313a207472616e736665722066726f6d20696e636f72726563742060008201527f6f776e6572000000000000000000000000000000000000000000000000000000602082015250565b7f4552433732313a20746f6b656e20616c7265616479206d696e74656400000000600082015250565b7f4552433732313a207472616e7366657220746f20746865207a65726f2061646460008201527f7265737300000000000000000000000000000000000000000000000000000000602082015250565b7f4552433732313a20617070726f766520746f2063616c6c657200000000000000600082015250565b7f4552433732313a206f70657261746f7220717565727920666f72206e6f6e657860008201527f697374656e7420746f6b656e0000000000000000000000000000000000000000602082015250565b7f4552433732313a20617070726f76652063616c6c6572206973206e6f74206f7760008201527f6e6572206e6f7220617070726f76656420666f7220616c6c0000000000000000602082015250565b7f4552433732313a2062616c616e636520717565727920666f7220746865207a6560008201527f726f206164647265737300000000000000000000000000000000000000000000602082015250565b7f4552433732313a206f776e657220717565727920666f72206e6f6e657869737460008201527f656e7420746f6b656e0000000000000000000000000000000000000000000000602082015250565b7f4552433732313a206d696e7420746f20746865207a65726f2061646472657373600082015250565b7f4552433732313a20617070726f76656420717565727920666f72206e6f6e657860008201527f697374656e7420746f6b656e0000000000000000000000000000000000000000602082015250565b7f4f776e61626c653a2063616c6c6572206973206e6f7420746865206f776e6572600082015250565b7f4552433732314d657461646174613a2055524920717565727920666f72206e6f60008201527f6e6578697374656e7420746f6b656e0000000000000000000000000000000000602082015250565b7f4552433732313a20617070726f76616c20746f2063757272656e74206f776e6560008201527f7200000000000000000000000000000000000000000000000000000000000000602082015250565b7f4552433732313a207472616e736665722063616c6c6572206973206e6f74206f60008201527f776e6572206e6f7220617070726f766564000000000000000000000000000000602082015250565b612aba816123f9565b8114612ac557600080fd5b50565b612ad18161240b565b8114612adc57600080fd5b50565b612ae881612417565b8114612af357600080fd5b50565b612aff81612463565b8114612b0a57600080fd5b5056fea2646970667358221220e4c4f3567d3ca1c03b88b37206ae8c9121016bf0e2fcf40c7b573e9ee0d01b1b64736f6c63430008030033",
  "linkReferences": {},
  "deployedLinkReferences": {}
}